:020000040800F2
:10000000F033002001010008B95A0008C9010008B6
:10001000B55A0008713A00086D6100080000000040
:1000200000000000000000000000000013010008B4
:10003000F13A00080000000053010008735B00085B
:100040001B0100081B0100081B0100081B01000820
:100050001B0100081B0100081B0100081B01000810
:100060001B0100081B0100081B0100081B01000800
:100070001B0100081B0100081B0100081B010008F0
:100080001B0100081B0100081B0100081B010008E0
:100090004D610008753A00081B0100081B010008AB
:1000A0001B0100081B0100081B0100081B010008C0
:1000B0001B0100081B0100081B0100081B010008B0
:1000C0001B0100081B0100081B0100081B010008A0
:1000D0001B0100081B0100083D6100081B0100080E
:1000E000F33A00081B0100081B010008DFF80CD0E0
:1000F00000F024FD00480047B70B0008F033002053
:100100000648804706480047FEE7FEE7FEE7FEE7B1
:10011000FEE7FEE7FEE7FEE7FEE7FEE7955C000888
:10012000ED000008EFF3108072B6704780F310887E
:100130007047324A1368012B04D04FF0010313605B
:100140002F4A10602F4A11602F484FF080510160F4
:100150007047EFF3108272B62848016891B14FF0F2
:10016000000101602648016829B1EFF3098121E906
:10017000F00F00680160234909680968B1E8F00FD1
:1001800081F3098882F310884EF0040E70471D49F0
:1001900008601B494FF00000086018494FF001004B
:1001A00008601A481A49D0F8002041EA02010160AB
:1001B00015484FF08051016016480068006880F3D0
:1001C000088861B662B670471EF0040F0CBFEFF3EB
:1001D0000880EFF3098020E9F00F40F804ED1EF0ED
:1001E000040F0CBF80F3088880F3098800B507F07E
:1001F000C7FF5DF804EB4EF0040E70477C02002050
:10020000740200207802002004ED00E020ED00E000
:100210000000FFFF08ED00E0202A04DB203A21FA6D
:1002200002F00021704721FA02F3D040C2F120020F
:10023000914008431946704740EA01039B0703D0E9
:1002400009E008C9121F08C0042AFAD203E011F815
:10025000013B00F8013B521EF9D27047D2B201E0D7
:1002600000F8012B491EFBD270470022F6E710B5BB
:1002700013460A4604461946FFF7F0FF204610BD14
:10028000421E12F8013F002BFBD111F8013B02F88E
:10029000013B002BF9D1704710B5044604E00B7800
:1002A00000F8013B03B1491C521EF8D2204610BD94
:1002B000421C10F8011B0029FBD1801A704730B591
:1002C00005460020034600E05B1C934205D2EC5C2F
:1002D000C85C201A01D1002CF6D130BDF0B480EA00
:1002E0000102D40F4200B2EB410F02D2024608468F
:1002F00011464A0042D0C30DDDB2C1F3C752AD1A58
:10030000202D35DAC1F3160141F4000204B1524246
:10031000C5F1200602FA06F12A411044B3EBD05F82
:1003200023D0C4B1012DA0EBC35009DCF0BC4FF0C9
:10033000004202EAC352DBB200F5000000F05BBBF2
:10034000400000F1807000EBC350A0F1807040EAE3
:10035000D170490009E0490841EAC071A0EBC350DF
:1003600000F50000400800EBC350F0BC00F03ABBC1
:100370006142012202EB4101001BF6E7F0BC70472D
:1003800081F00041AAE780F00040A7E780EA01027F
:1003900010B502F00043400022D04A001FD0010EE9
:1003A00001EB1261C0F35600C2F3560240F40000A4
:1003B00042F40002A0FB022000047F39140400D0A4
:1003C000401C50EA124001D44000491EC2B20C0643
:1003D00004EBD010401C4008802A02D003E000202B
:1003E00010BD20F00100002900DA0020184310BDE4
:1003F00030B480EA010202F0004530F0004221F002
:10040000004013D090B1C30DD40DC2F31601C0F358
:100410001600E41A41F4000140F400027D349142D8
:1004200001D3641C00E04900002C02DA30BC00203B
:1004300070474FF400000023914201D3891A03430F
:1004400040084FEA4101F7D151B1914202D14FF03A
:10045000004105E002D24FF0010101E06FF001011F
:1004600003EBC450284430BC00F0BCBA2DE9FE4F69
:10047000804681EA0300C00F0C46009021F0004145
:1004800023F00045B8EB0200A94105D240462146C1
:1004900090461C460B46024623F00040104347D0CE
:1004A000270DC7F30A00C3F30A510290401A0190C6
:1004B00040286BDAC3F3130040F4801B0098924687
:1004C00020B10023D2EB030A63EB0B0B01985946D2
:1004D000C0F14002504600F064FA06460D46504610
:1004E0005946019A00F06CFA10EB080061410024B3
:1004F00087EA115284EAE7731A4340D0009A62B344
:10050000019A012A4FEA075215DC001B61EB020138
:100510004FF0004202EA0752CDE90042001C41F5CB
:10052000801132462B4600F0A3FA03B0BDE8F08FED
:1005300040462146F9E7001B61EB0201001C41F532
:10054000801300185B412018A2F5001747EB030148
:1005500040EAD570B6196D4111E06D084FEA3606D4
:1005600045EAC0754FEA0752001B61EB0201001C0F
:1005700041F5801149084FEA3000001951413246D7
:100580002B4603B0BDE8F04F00F063BA009801229B
:1005900040000023D0EB020263EBE0730098214699
:1005A0004FEAE074B8EB000061EB0401E9E783F087
:1005B00000435BE781F0004158E72DE9FE4F81EAF7
:1005C000030404F0004421F0004100944FF0000BBC
:1005D00023F0004350EA01045ED052EA03045BD0EA
:1005E000C3F30A54C1F30A552C44A4F2F334019422
:1005F000A0FB0254C1F3130141F48011C3F31303B0
:1006000043F4801301FB024400FB034E840A970A63
:1006100044EA815447EA8357A4FB076802958D0A90
:1006200005FB07854FEA932C04FB0C542705029D1C
:100630004FEA065847EA1637B5EB08056EEB070C8C
:10064000870E920E47EA811742EA8312A7FB020146
:10065000B6EB0B0164EB00042B0D43EA0C335E1880
:1006600044EB1C50DA465146E7FB0201C5F3130484
:100670004FEA0B3343EA14534FEA0432019C43EA36
:100680000603A4F10C040294009CCDE900B400F030
:10069000EFF903B0BDE8F08F00200146F9E72DE93E
:1006A000F04D81EA030404F0004B21F000451446AC
:1006B0004FF0000A23F0004150EA050220D054EA2E
:1006C00001021DD0C5F30A570246C5F31303C1F357
:1006D0001300C1F30A5640F4801543F48013A7EBCE
:1006E0000608101BD64608F2FD3873EB050002D34E
:1006F00008F1010801E092185B41B8F1000F03DA3C
:1007000000200146BDE8F08D00204FF48011064620
:1007100084460EE0171B73EB050705D3121B63EB32
:10072000050306434CEA010C49084FEA30009218D1
:100730005B4150EA0107EDD152EA030012D082EA90
:10074000040083EA0501084305D0101BAB4106D223
:100750000122002306E000224FF0004302E06FF088
:10076000010253101AEB06004CEB085110EB0A0083
:1007700041EB0B01BDE8F04D00F06BB9C10F80EA11
:10078000E0700844CA079623002100F034B996238C
:100790000022114600F02FB90EB5C10F80EAE070BB
:1007A0000844CA07002140F233438DE80E000A4690
:1007B0000B4600F05DF903B000BD0EB540F23341C9
:1007C00002910021CDE900110A460B4600F050F9D4
:1007D00003B000BD00F0004220F00040C10DC0F3A6
:1007E000160040F400007F2901DA002070479629A6
:1007F00003DCC1F19601C84001E096398840002A27
:10080000F4D04042704720F00040C10DC0F3160004
:1008100040F400007F2901DA00207047962903DCAC
:10082000C1F19601C840704796398840704700F082
:10083000004230F000400AD0C10D01F56071C0F3F4
:10084000160042EA0151C2084007114370470020D8
:100850000146704730B5041E71F1000404DB4FF00F
:100860000044404264EB0101141E73F1000405DBF7
:100870001C464FF00043524263EB04038B4208BF17
:10088000824230BD30B5041E71F1000404DB4FF02C
:100890000044404264EB0101141E73F1000405DBC7
:1008A0001C464FF00043524263EB0403994208BFD9
:1008B000904230BD01F0004330B421F0004150EAD5
:1008C000010206D00A0DA2F56072C1F31301002ADD
:1008D00002DC30BC00207047440F44EAC104C10070
:1008E000E01830BC00EBC25000F07CB8002801DBFF
:1008F000C0F10040002901DBC1F100418142704795
:10090000002801DBC0F10040002901DBC1F10041FA
:100910008842704730B50B46014600202022012452
:1009200009E021FA02F59D4205D303FA02F5491BBD
:1009300004FA02F52844151EA2F10102F1DC30BDD3
:100940002DE9F05F0546002092469B468846064604
:10095000814640241BE02846414647462246FFF791
:100960005BFC53465A46C01A914110D311461846B3
:10097000224600F016F82D1A67EB01084F46224672
:100980000120002100F00DF817EB00094E41201E58
:10099000A4F10104DFDC484631462A464346BDE85F
:1009A000F09F202A04DB203A00FA02F10020704771
:1009B0009140C2F1200320FA03F31943904070479D
:1009C000202A06DBCB17203A41FA02F043EAE07313
:1009D00006E041FA02F3D040C2F120029140084300
:1009E000194670470029A8BF7047401C490008BF3E
:1009F00020F00100704710B4B0FA80FC00FA0CF04F
:100A000050EA010404BF10BC704749B1CCF1200486
:100A100021FA04F411FA0CF118BF01212143084313
:100A2000A3EB0C01CB1D4FEA00614FEA102042BF3F
:100A3000002010BC704700EBC35010440029A4BF35
:100A400010BC7047401C490008BF20F0010010BCDA
:100A5000704710B5141E73F1000408DA401C41F110
:100A6000000192185B411A4301D120F0010010BD32
:100A70002DE9F04D92469B4611B1B1FA81F202E0A8
:100A8000B0FA80F220329046FFF78BFF04460F4603
:100A900040EA0A0041EA0B0153465A46084313D084
:100AA000114653EA010019D0C8F140025046FFF741
:100AB000B3FB05460E46504659464246FFF771FFC6
:100AC000084305D0012004E020463946BDE8F08DFA
:100AD0000020054346EAE0762C4337430A98630535
:100AE000E40AA0EB08000022FD0A44EA47540A3059
:100AF00002D500200146E9E7010510196941DDE949
:100B0000084500196941BDE8F04DA2E7C1F30A525A
:100B1000C1F3130140F2FF3341F480119A4202DA2B
:100B200000200146704740F233439A42A2F233421A
:100B300002DC5242FFF770BBFFF733BF064C074D94
:100B400006E0E06840F0010394E80700984710349D
:100B5000AC42F6D3FFF7CEFAFC9D00081C9E0008BD
:100B600070B58C1810F8015B15F0070301D110F86F
:100B7000013B2A1106D110F8012B03E010F8016B9C
:100B800001F8016B5B1EF9D12B0705D40023521E1F
:100B90000DD401F8013BFAE710F8013BCB1A921C87
:100BA00003E013F8015B01F8015B521EF9D5A14285
:100BB000D8D3002070BD10B508F0DEFC002010BDB9
:100BC0002DE9F84F3F4988683F49FFF7DFFB009068
:100BD000FFF700FEB0F1000B01DB594601E0CBF15D
:100BE00000010846FFF7D8FD80460022374BFFF78B
:100BF00056FD06460022364BFFF751FD0446FFF72F
:100C000059FE824633480078032815D1324A51688C
:100C10002C4AD068FFF774FE04D84FF07E502F495D
:100C2000086109E02C4AD168264AD068FFF75EFEC9
:100C300002D800202949086126480078012818D1E7
:100C40002649086B5146FFF749FB04462348C16A11
:100C50002046FFF74BFE07D82049086B5146FFF7A7
:100C60003DFB1E49086319E01C48C06A1B49086324
:100C700014E018480078022810D11849086B514632
:100C8000FFF73EFE07D81549086B5146FFF778FB82
:100C90001249086302E00020104908630F4AD16A34
:100CA000106BFFF7A5FB0D49086108694FF07E51F5
:100CB000FFF726FE03D24FF07E5008490861BDE8D9
:100CC000F88F00004803002000007A4400408F4065
:100CD0000020AC40B2010020280000207800002055
:100CE00010B500F04BF910BD2DE9F05F1749C86849
:100CF0001749FFF74BFB0446FFF785FD1FFA80FA03
:100D00001249C8681249FFF741FB8346FFF77BFD94
:100D10001FFA80F9484600F0DDF80446FFF74DFD64
:100D2000074600220B4BFFF7BAFC0546FFF7C2FD52
:100D3000094908610846806AC8620A461169D06A92
:100D4000FFF724FB04490863BDE8F09F4803002037
:100D500000007A4400408F407800002070B5204A9F
:100D6000D168204A1279521E1D4B0C3353F83200C1
:100D7000FFF706FB1C4988610024002048610BE056
:100D8000174A343252F82410174A5069FFF7A6FA6E
:100D900015494861601CC4B212480079A042EFDCDA
:100DA00010490879FFF7F3FC05460F4948692946C1
:100DB000FFF71EFB0C494861094A91685068FFF72C
:100DC000E5FA0949C86107480079401E04490C3119
:100DD00051F83000044908620148C068486270BD9B
:100DE00048030020B2010020780000201CB5192023
:100DF0000B214FF400730022CDE9001009490AA02D
:100E000007F0C5FE044644B900BF0AA10CA007F0D4
:100E1000F3FA0FA007F0F0FA00BF204607F0CEFF6C
:100E20001CBD00005D0F0008616E616C7973697311
:100E300000000000416E616C79736973000000006E
:100E40005B424D53204552524F525D5B25735D000E
:100E5000437265617465205461736B204661696CEF
:100E60000D0A00002DE9F04715480078042824D128
:100E700041F2883007F04FFF1249C8681249FFF766
:100E800085FA8246FFF7BFFC1FFA80F9484600F05A
:100E900021F80446FFF791FC074600220B4BFFF7B1
:100EA000FEFB0546FFF706FD094908610A46116980
:100EB000D06AFFF76BFA06490863BDE8F0870000C7
:100EC000B20100204803002000007A4400408F4017
:100ED0007800002070B5044600261C480088A04217
:100EE00000DB31E01948B0F8C800A04202DC4FF442
:100EF0007A7629E0234664220021144806F0E6FFB2
:100F000085B2124830F81500A04206D105EB8500E5
:100F10004FF6FF7101EA400615E00C4830F8151055
:100F20000246681C32F81000081A114631F81510F4
:100F3000091B01EB8101490091FBF0F005EB8501F4
:100F400000EB410086B200BF304670BDAC0000200F
:100F500010B5FFF787FFFFF733FE10BDFFF7C4FEA4
:100F60000BE0FFF7FBFEFFF7BBFEFFF7F1FF05F01D
:100F7000F5F84FF47A7007F0CEFEF2E72DE9F04174
:100F8000394908683949FFF701FA0746FFF722FC9B
:100F900004B23548806C08B9BDE8F0813448B0F936
:100FA0000000844209DD3248B0F90000201A0A2806
:100FB00002DB2F4804800AE0EEE72D48B0F900007C
:100FC000001B0A2802DB2A48048000E0E4E7FA2C30
:100FD00001DB01251CE0642C03DBFA2C01DA02257D
:100FE00016E0002C03DB642C01DA032510E014F179
:100FF000C80F04DB14F10A0F01DA042508E014F528
:10100000967F04DB14F1C80F01DA052500E0062500
:10101000A4F1FA0068430A2190FBF1F000F57A7020
:1010200086B240F21A40864201DD064604E040F2F4
:10103000EE20864200DA06463046FFF7A8FB8046DF
:101040000C48816A4046FFF7A1F907460A49FFF7B5
:10105000CFF90849C8620A461169D06AFFF796F9C4
:101060000449086300BF97E74803002000002041BF
:10107000760100207800002000007A4438B504464C
:101080004FF47A7104FB01F007F01AFF00906A46F2
:1010900000210948006807F0C3FF0748006808F00E
:1010A0003BF800BF05A107A007F0A6F909A007F0CB
:1010B000A3F900BF38BD0000A4010020456E657291
:1010C000677900005B424D5320494E464F5D5B25DA
:1010D000735D000042616C616E63652054696D65EB
:1010E000722053746172740D0A00000070B50446DA
:1010F000012143F6FF7000F005FD012000F018FD0E
:1011000000200C4988830C49087041F2883007F0B0
:10111000D7FE054607F0EEFE28440849086000BFE8
:1011200007A109A007F068F90BA007F065F900BF57
:1011300070BD000078010020A8010020AC01002053
:10114000456E6572677900005B424D5320494E46FB
:101150004F5D5B25735D000042616C616E636520CD
:1011600054696D657220456E640D0A0070B54D4975
:1011700008690021FFF7BAFB14D1012240214A4837
:1011800003F030FA01228021474803F02BFA0122B4
:101190001102454803F026FA01225102424803F0A9
:1011A00021FA7EE03F490869FFF741FB044600222F
:1011B0003E4BFFF74FFB15D8012240213A4803F080
:1011C00011FA01228021384803F00CFA01221102A1
:1011D000354803F007FA00224FF40071324803F05B
:1011E00001FA5EE02F490869FFF721FB044600225F
:1011F0002F4BFFF72FFB16D8012240212A4803F07E
:10120000F1F901228021284803F0ECF900224FF483
:101210008071254803F0E6F900224FF4007122485E
:1012200003F0E0F93DE01F490869FFF700FB0446C1
:101230000022204BFFF70EFB16D8012240211A484E
:1012400003F0D0F900228021174803F0CBF90022E7
:101250004FF48071144803F0C5F900224FF4007177
:10126000114803F0BFF91CE00E4908694FF07E51A8
:10127000FFF73CFB15D8002240210B4803F0B2F9E0
:1012800000228021084803F0ADF900224FF480715C
:10129000054803F0A7F900224FF40071024803F05B
:1012A000A1F970BD78000020000C01400000D03F83
:1012B0000000E03F0000E83F10B5364A5169364A69
:1012C0009068FFF71DFB25D234480068C8303349C9
:1012D0000860084600683C21B0FBF1F02D4991F808
:1012E0002210884253D3012000F014FC294991F8C0
:1012F000230001F0E9FA0420294908800120294946
:10130000087000BF28A12AA007F076F82DA007F0EA
:1013100073F83CE02048806C00B910BD1D4A516A4A
:101320001D4A926C521E1C4B53F82200FFF7E8FA3C
:1013300011D2012000F0EEFB202019490880012085
:101340001849087000BF18A119A007F055F821A08E
:1013500007F052F81BE00F4A516B0F4A1068FFF775
:10136000C5FA11D2012000F0D5FB80200C4908807D
:1013700001200C49087000BF0BA10DA007F03CF83C
:1013800018A007F039F802E000200449086000BF07
:10139000C3E700002800002048030020740000205C
:1013A000240000207000002050726F746563740088
:1013B0005B424D53205741524E494E475D5B25736A
:1013C0005D0000004F4343205469676765720D0A52
:1013D000000000004F5443205469676765720D0A8E
:1013E000000000004C5443205469676765720D0A81
:1013F0000000000010B50448006807F024FA01203E
:101400000249C87010BD0000A0010020B2010020F8
:101410000120014948707047B201002001200149B4
:1014200088707047B201002010B502F0D1FA40B1C7
:1014300000BF09A109A006F0DFFF0CA006F0DCFF49
:1014400008E000BF04A105A006F0D6FF0BA006F03F
:10145000D3FF00BF10BD0000444247005B424D5324
:1014600020494E464F5D5B25735D00004C6F616403
:101470002044657465637465640D0A004E6F204CEA
:101480006F6164205761732044657465637465649B
:101490000D0A000000200149C8707047B201002009
:1014A0000020014948707047B20100200020014926
:1014B00088707047B20100201CB519200D214FF42F
:1014C00000730022CDE9001009490AA007F05FFB74
:1014D000044644B900BF07A108A006F08DFF0BA089
:1014E00006F08AFF00BF204607F068FC1CBD000024
:1014F00021150008436F6D6D000000005B424D53E5
:10150000204552524F525D5B25735D004372656109
:101510007465205461736B204661696C0D0A00008C
:1015200003E04FF4FA6007F0F6FBFAE710B51E4847
:10153000806C00B910BD1D4AD16A1B4A926C521EC4
:10154000194B53F82200FFF7DBF911D2012000F00C
:10155000E8FA40201649088001201649087000BFAB
:1015600015A117A006F048FF1AA006F045FF19E0E4
:101570000E4AD16B0C4A1068FFF7B8F912D201205D
:1015800000F0CFFA4FF48070094908800120094922
:10159000087000BF08A10AA006F02EFF11A006F0F7
:1015A0002BFF00BF00BFC5E7480300202800002034
:1015B000240000207000002050726F746563740076
:1015C0005B424D53205741524E494E475D5B257358
:1015D0005D0000004F5444205469676765720D0A2E
:1015E000000000004C5444205469676765720D0A7E
:1015F000000000002DE9F0415F48007800287DD10F
:101600005E48C0780028FAD107F074FC5C4909688C
:10161000884273D359480078032803D0574800788C
:1016200001286CD15748C668574A1169534A127944
:10163000521E00F10C0353F83200FFF761F97DD21E
:1016400000215248006807F02AF901255EE04B4866
:101650000079411B4B480C3050F831703146384608
:10166000FEF78EFE0446484841692046FFF748F9D8
:1016700049D24FF0000841480079411B41480C30E5
:1016800000EBC10004793CB93F48007F00F0020044
:1016900008BB4FF001081EE038480179601C814208
:1016A00009D13948808B611E01228A40104090B9CF
:1016B0004FF001080FE03448808B611E01228A4000
:1016C000104040B93048808B611C01228A40104094
:1016D00008B94FF00108B8F1010F13D100BF2CA1D8
:1016E0002DA006F089FE611C2FA006F085FE00BF2C
:1016F0002548808B0121A140084301E03AE02FE01A
:101700002149888300E006E0681CC5B21B480079C7
:10171000401CA8429BDC00BF1B48808BC0B11A490B
:10172000888B002100F0EEF917498869FFF7A6FCC5
:1017300001201149087000BF15A100E009E016A0C2
:1017400006F05AFE1DA006F057FE00BFBDE8F0816E
:1017500000BF00200C4988830C48006807F073F82C
:1017600041F2883007F0ACFB044607F0C3FB20448D
:101770000349086000BFE9E7A8010020B20100208A
:10178000AC0100204803002078010020A0010020C7
:10179000456E6572677900005B424D5320494E46A5
:1017A0004F5D5B25735D000042616C616E63652077
:1017B00043656C6C3A25640D0A00000042616C615F
:1017C0006E63652053746172740D0A0010B55F4832
:1017D000008800287CD15E480078012804D00228C7
:1017E00016D0032876D13CE05A4A11685A4A10694B
:1017F000FFF786F80BD8012000F08CF900BF57A145
:1018000058A006F0F9FD5BA006F0F6FD00BF62E00F
:10181000504A9168504A1069FFF768F80BD80120C8
:1018200000F07FF900BF4DA14EA006F0E5FD55A0E8
:1018300006F0E2FD14E0474A116A574A5068FFF784
:101840005FF803D8002000F073F909E0414A516ABB
:10185000514A5068FFF74AF802D2012000F068F9B7
:1018600039E03B484078E0B93A4A51683A4A106951
:10187000FFF73CF815D200214848006807F00FF840
:1018800078B9002000F046F94448006806F0DBFF14
:1018900000BF32A133A006F0AFFD41A006F0ACFDC1
:1018A00000BF2B48807890B92A4AD1682A4A10692B
:1018B000FFF726F80BD2002000F033F900BF27A174
:1018C00028A006F099FD3AA006F096FD00BF02E0C0
:1018D0003BE0FFE700BF00BF1D4840783949097869
:1018E000884211D01A484078012802D100F012F93C
:1018F00006E017480078042802D1002000F00AF919
:10190000134840782F490870114880782E4909788B
:10191000884211D00E488078012802D100F001F9E8
:1019200006E00B480078042802D1002000F0F9F806
:101930000748807824490870174948682349FEF70A
:10194000D5FF02D2012000F0F3F810BD24000020E2
:10195000B20100207801002078000020456E6572F9
:10196000677900005B424D5320494E464F5D5B2531
:10197000735D000053746F70204368617267650D7A
:101980000A00000053746F702044697363686172C9
:1019900067650D0A0000000048030020A001002038
:1019A0005374617274204368617267650D0A0000A8
:1019B0005374617274204469736368617267650D62
:1019C0000A000000B0010020B101002000806D4538
:1019D0001CB519200C214FF400730022CDE9001032
:1019E000174918A007F0D3F8044644B900BF17A15F
:1019F00018A006F001FD1BA006F0FEFC00BF20466B
:101A000007F0DCF90420142300221B4900901BA0DE
:101A100007F030FB1B4908600846006840B900BF6A
:101A20000AA10CA006F0E8FC17A006F0E5FC00BF38
:101A30000022012119A006F0E5FE1A4908601CBD2C
:101A4000A91A0008656E657267790000456E6572B7
:101A5000677900005B424D53204552524F525D5B07
:101A600025735D00437265617465205461736B205A
:101A70004661696C0D0A0000ED10000862616C613E
:101A80006E636500A4010020437265617465205493
:101A9000696D6572204661696C0D0A006273656D3F
:101AA00000000000A0010020114840781149087092
:101AB0000F4880781049087041F2883007F000FA2A
:101AC000044607F017FA20440C4908600848C0781B
:101AD00028B94FF0FF310A48006806F0E0FE06E042
:101AE000FFF774FEFFF786FDC82007F014F9F7E74B
:101AF000B2010020B0010020B1010020AC010020A3
:101B0000A001002070B504460D462946204601F08C
:101B100021F870BD10B504462146012001F0CAF835
:101B200010BD10B504462146022001F0C3F810BDD7
:101B300010B504462146002001F0D4F844B900BF96
:101B400008A109A006F058FC0BA006F055FC08E01F
:101B500000BF04A104A006F04FFC0EA006F04CFC50
:101B600000BF10BD444247005B424D5320494E46E2
:101B70004F5D5B25735D0000456E6572677920528D
:101B800065636F7665727920456E61626C65640D80
:101B90000A000000456E65726779205265636F76B2
:101BA0006572792044697361626C65640D0A000096
:101BB0001CB519200D214FF400730022CDE900104F
:101BC00009490AA006F0E3FF044644B900BF09A191
:101BD0000AA006F011FC0DA006F00EFC00BF204686
:101BE00007F0ECF81CBD00005D200008696E666F10
:101BF00000000000496E666F000000005B424D531C
:101C0000204552524F525D5B25735D004372656102
:101C10007465205461736B204661696C0D0A000085
:101C2000F0B593B000BFA0A1A1A006F0E5FBA448C9
:101C300006F0E2FB00BFA349C86AFEF7F8FD0546BF
:101C40002A460B46A0A103A804F092FA00BF96A171
:101C500097A006F0D1FB03A9A4A006F0CDFB00BF1E
:101C60009849086BFEF7E3FD05462A460B46A1A1FD
:101C700003A804F07DFA00BF8BA18DA006F0BCFB89
:101C800003A99AA006F0B8FB00BFA3A006F0B4FB1E
:101C9000FFF76CFA8B490869A049FEF777FB074606
:101CA000FEF7C5FD05462A460B469DA103A804F094
:101CB0005FFA00BF7CA17EA006F09EFB03A98BA06B
:101CC00006F09AFB00BF94A006F096FB7D49086AD7
:101CD000FEF7ADFD05462A460B4697A103A804F082
:101CE00047FA00BF70A172A006F086FB03A97FA08F
:101CF00006F082FB00BF7349486AFEF798FD05466F
:101D00002A460B4693A103A804F032FA00BF66A14D
:101D100067A006F071FB03A974A006F06DFB00BF7D
:101D200068498869FEF783FD05462A460B4690A15F
:101D300003A804F01DFA00BF5BA15DA006F05CFBE8
:101D400003A96AA006F058FB00BF5E494869FEF788
:101D50006EFD05462A460B468FA103A804F008FA3B
:101D600000BF51A152A006F047FB03A95FA006F0F7
:101D700043FB00BF5349C869FEF759FD05462A4693
:101D80000B468DA103A804F0F3F900BF46A148A0BB
:101D900006F032FB03A955A006F02EFB00BF5EA0A3
:101DA00006F02AFB8B494868FEF741FD05462A46A6
:101DB0000B4689A103A804F0DBF900BF3AA13CA0BF
:101DC00006F01AFB03A949A006F016FB00BF8149E3
:101DD0008868FEF72CFD05462A460B4685A103A818
:101DE00004F0C6F900BF30A131A006F005FB03A93D
:101DF0003EA006F001FB00BF002417E0754951F832
:101E00002400FEF714FD621CCDE9000180A103A8A7
:101E100004F0AEF900BF24A125A006F0EDFA03A955
:101E200032A006F0E9FA00BF601CC4B26948806CB9
:101E3000A042E3D838A006F0DFFA002425E0654987
:101E4000343151F82400FEF7F2FC05460E46764880
:101E5000808B0121A1400840002801DD73A000E033
:101E600012A0621C73A1CDE90056029003A804F0F1
:101E70007FF900BF0CA10EA006F0BEFA03A91BA0BB
:101E800006F0BAFA00BF601CC4B272480079A042E2
:101E9000D5DC00BF04A106A006F0AEFA6E4806F03D
:101EA000ABFA00BF13B0F0BD496E666F00000000D2
:101EB0005B424D5320494E464F5D5B25735D0000EC
:101EC00020990008780000204261747465727920BE
:101ED0005265616C204361706163697479203D20B3
:101EE00025302E3166412F480000000025730D0A71
:101EF00000000000426174746572792052656D6162
:101F0000696E204361706163697479203D202530DA
:101F10002E3366412F4800000D0A00000000C84221
:101F20004261747465727920534F43203D202530FF
:101F30002E3166252500000043656C6C204D6178CC
:101F400020566F6C74616765203D2025302E336606
:101F50005600000043656C6C204D696E20566F6C16
:101F600074616765203D2025302E336656000000E1
:101F700043656C6C204D617820566F6C74616765A9
:101F800020446966666572656E6365203D20253074
:101F90002E3366560000000043656C6C2041766568
:101FA0007261676520566F6C74616765203D2025FE
:101FB000302E3366560000004261747465727920D9
:101FC0005265616C20506F776572203D2025302E60
:101FD00033665700480300204261747465727920AB
:101FE000566F6C74616765203D2025302E33665630
:101FF000000000004261747465727920437572724A
:10200000656E74203D2025302E33664100000000AF
:1020100054656D706174757265202564203D2025BE
:10202000302E316600000000780100202D2D2D3E5D
:102030000000000043656C6C252D326420566F6CE7
:1020400074616765203D20252D352E336656202589
:1020500073000000B2010020D898000805E0FFF7E7
:10206000DFFD4FF4FA6006F056FEF8E710B52F4892
:102070000088FA302D4908802D480078012809D1C0
:1020800008460088FA2805DB01F076FC0020274985
:10209000088005E02648007810B900202349088010
:1020A00024480088FA302349088023480078012812
:1020B00009D108460088FA2805DB01F01DFC002044
:1020C0001C49088005E01C48007810B90020194917
:1020D00008801A480088FA301849088018480078A3
:1020E00001280ED1084601880088401C134A108040
:1020F000B1F5FA6F05DB01F00BFC00200F490880F9
:1021000005E00F48007810B900200C4908800D4800
:102110000078012808D10C480078012804D101F08A
:10212000DFFB00200749087010BD000016000020EA
:102130001100002018000020120000201A000020CA
:10214000130000201000002014000020012001498D
:1021500008707047100000201CB5192009214FF4A9
:1021600000730022CDE9001009490AA006F00FFD16
:10217000044644B900BF09A10AA006F03DF90DA02C
:1021800006F03AF900BF204606F018FE1CBD00001C
:10219000CD2300086D6F6E69746F72004D6F6E69AC
:1021A000746F72005B424D53204552524F525D5B3B
:1021B00025735D00437265617465205461736B2003
:1021C0004661696C0D0A000070B558480078042813
:1021D00020D157498868FEF72AFB0446554A564BDA
:1021E000FEF750FB09D952498868FEF720FB0446E8
:1021F000504A524BFEF72EFB0BD803204B49087078
:1022000000BF4FA150A006F0F7F853A006F0F4F875
:1022100000BF70BD46498868FEF709FB0446454A81
:10222000454BFEF717FB3FD241498868FEF7FFFA9E
:102230000446404A414BFEF725FB35D203203B497B
:102240000870484800684849884218D30021474828
:10225000006806F024FBB8B9002042490860042059
:10226000324908704148006806F0EDFA00BF34A119
:1022700035A006F0C1F83EA006F0BEF804E03948EB
:102280000068FA30374908603E48007803284BD090
:1022900003203C49087000BF29A12BA006F0ACF830
:1022A00039A006F0A9F83FE021498868FEF7BFFA97
:1022B0000446204A204BFEF7E5FA15D800202949AC
:1022C00008600120194908702E48007801282BD099
:1022D00001202C49087000BF19A11BA006F08CF842
:1022E0002FA006F089F81FE011498868FEF79FFAD1
:1022F0000446104A114BFEF7ADFA15D800201949D3
:1023000008600220094908701E48007802280BD096
:1023100002201C49087000BF09A10BA006F06CF850
:1023200024A006F069F800BF00BF72E7B2010020E8
:10233000480300207B14AE47E17A943FE17A94BFD2
:102340004D6F6E69746F72005B424D5320494E466B
:102350004F5D5B25735D000057616B652055700D07
:102360000A0000002000002080EE3600A0010020BE
:10237000456E74727920536C656570204D6F64658D
:102380000D0A00001C000020456E74727920537401
:10239000616E646279204D6F64650D0A0000000073
:1023A000456E74727920436861726765204D6F6471
:1023B000650D0A00456E7472792044697363686123
:1023C000726765204D6F64650D0A000008E0FFF735
:1023D0004DFEFFF7F9FE03F0C1FEFA2006F09BFC6C
:1023E000F5E7000010B500BF04A106A006F004F850
:1023F00008A006F001F800BF10BD000050726F7415
:10240000656374005B424D5320494E464F5D5B252A
:10241000735D0000424D535F50726F746563744882
:10242000774465766963650D0A00000010B526489B
:10243000008801282AD0022835D0082802D0102888
:102440003ED111E0214991F8200000F03DFA012031
:102450001F49087000BF1FA120A005F0CDFF24A0D8
:1024600005F0CAFF00BF2CE0184991F8210000F0E8
:102470002BFA01201649087000BF16A117A005F01D
:10248000BBFF1FA005F0B8FF00BF1AE001201049F4
:10249000087000BF0FA111A005F0AEFF1CA005F051
:1024A000ABFF00BF0DE001200949087000BF09A182
:1024B0000AA005F0A1FF19A005F09EFF00BF00E0F3
:1024C00000BF00BF10BD0000240000202800002035
:1024D0007000002050726F74656374005B424D534E
:1024E000205741524E494E475D5B25735D00000009
:1024F0004F4344205469676765720D0A000000006D
:10250000534344205469676765720D0A0000000058
:102510004F56205469676765720D0A00555620545E
:1025200069676765720D0A000348008810B90820C2
:1025300001490880704700002400002003480088FB
:1025400010B90120014908807047000024000020D4
:1025500010B500BF04A106A005F04EFF08A005F0CD
:102560004BFF00BF10BD000050726F7465637400B4
:102570005B424D5320494E464F5D5B25735D000025
:10258000424D535F50726F7465637448774F767233
:10259000640D0A000348008810B910200149088022
:1025A00070470000240000200348008810B9022072
:1025B0000149088070470000240000201CB5192044
:1025C0000A214FF400730022CDE90010144915A030
:1025D00006F0DDFA044644B900BF14A115A005F0C9
:1025E0000BFF18A005F008FF00BF204606F0E6FB31
:1025F0000420142300221849009018A006F03AFD88
:10260000184908600846006840B900BF07A109A042
:1026100005F0F2FE14A005F0EFFE00BF1CBD0000A7
:102620006D29000870726F746563740050726F7466
:10263000656374005B424D53204552524F525D5BBF
:1026400025735D00437265617465205461736B206E
:102650004661696C0D0A0000A529000872656C6965
:10266000657665006C0000204372656174652054D6
:10267000696D6572204661696C0D0A0010B51A48D3
:102680000088202810D006DC04280CD0082811D09F
:10269000102817D111E040280DD0802805D0B0F5C2
:1026A000807F0FD108E000BF00BF10494878FFF7D6
:1026B00031FA08E000BF00BF00BF0C498878FFF77F
:1026C00030FA00E000BF00BF002007490880084939
:1026D000087000BF07A109A005F08EFE0BA005F051
:1026E0008BFE00BF10BD000024000020B2010020BE
:1026F0007000002050726F74656374005B424D532C
:1027000020494E464F5D5B25735D000050726F742B
:102710006563742052656C696576650D0A0000007A
:1027200010B547480088402849D006DC01280AD067
:1027300002281CD020287DD12DE0802853D0B0F570
:10274000807F7AD163E03F4A91683F4AD06AFEF7C2
:10275000CDF80BD202203D49087000BF3CA13EA03D
:1027600005F04AFE40A005F047FE00BF66E0354A8E
:102770001169354AD068FEF7C3F80BD202203349FD
:10278000087000BF32A134A005F036FE3AA005F073
:1027900033FE00BF52E02B4A916A2B4A1068FEF7C5
:1027A000A5F80BD202202949087000BF28A12AA051
:1027B00005F022FE34A005F01FFE00BF3EE0214AD6
:1027C000116B214A1068FEF791F80BD202201F49C5
:1027D000087000BF1EA120A005F00EFE2EA005F07F
:1027E0000BFE00BF2AE0174A916B174A1068FEF7EC
:1027F00087F80BD202201549087000BF14A116A05B
:1028000005F0FAFD28A005F0F7FD00BF16E00D4A1F
:10281000116C0D4A1068FEF773F80DD202200B49B7
:10282000087000BF0AA10CA005F0E6FD22A005F08B
:10283000E3FD00E001E000BF00E000BF00BF10BD0D
:102840002400002028000020480300207000002001
:1028500050726F74656374005B424D5320494E465D
:102860004F5D5B25735D00004F562052656C6965B6
:1028700076650D0A0000000055562052656C6965AA
:1028800076650D0A000000004F54432052656C69C4
:102890006576650D0A0000004F54442052656C694E
:1028A0006576650D0A0000004C54432052656C6942
:1028B0006576650D0A0000004C54442052656C6931
:1028C0006576650D0A00000038B504464FF47A714C
:1028D00004FB01F006F0F4FA00906A460021094872
:1028E000006806F09DFB0748006806F015FC00BF75
:1028F00005A107A005F080FD09A005F07DFD00BF42
:1029000038BD00006C00002050726F746563740065
:102910005B424D5320494E464F5D5B25735D000081
:1029200050726F746563742054696D6572205374BE
:102930006172740D0A00000010B50B480078012880
:1029400006D0022807D0032808D0042808D106E0C2
:10295000FEF7B2FC05E0FEF7E9FD02E001E000E071
:1029600000BF00BF10BD0000B201002016E00C48FF
:10297000007820B1012807D002280BD107E0FFF72B
:10298000DBFFFFF753FD05E0FFF7CAFE02E0FFF7AC
:1029900075FE00BF00BFC82006F0BDF9E7E70000E4
:1029A0007000002010B5044602200649087000BFE0
:1029B00005A107A005F020FD09A005F01DFD00BF41
:1029C00010BD00007000002050726F7465637400C9
:1029D0005B424D5320494E464F5D5B25735D0000C1
:1029E00050726F746563742054696D657220546908
:1029F000676765720D0A000000B589B0194800903C
:102A000019480190194802901948039019480690F6
:102A1000194805901948049001208DF81C000521E3
:102A20008DF81D1001218DF81E108DF81F1040F635
:102A30001C41ADF8201041F26801ADF8221002F0FF
:102A4000B7FD684600F0D0F9FFF786FBFFF7B6FD4B
:102A5000FEF7CCF9FEF7BCFFFFF7AAF8FEF72CFD56
:102A600009B000BD29250008952500083D2500086E
:102A7000A92500084D210008E5230008512500087C
:102A800038B5002000900024694600F039FB9DF81D
:102A9000000000F0010038B144F001042C48006847
:102AA00010B12B49086880479DF8000000F0020033
:102AB00038B144F002042648406810B124494868FF
:102AC00080479DF8000000F0040038B144F0040491
:102AD0001F48806810B11E49886880479DF8000033
:102AE00000F0080038B144F008041948C06810B17B
:102AF0001749C86880479DF8000000F0100038B101
:102B000044F010041248006910B111490869804767
:102B10009DF8000000F0200038B144F020040C487B
:102B2000406910B10A49486980479DF8000000F0EB
:102B3000800038B144F080040548806910B1044930
:102B4000886980472146002000F076FE38BD0000ED
:102B50009403002070B504460D46ADB919480078BD
:102B600004F01F0108431749087008464078C4F371
:102B7000441108431349487008468078C4F38421FF
:102B800008431049887016E0012D14D10D480078D3
:102B900004F01F0188430B49087008464078C4F3CD
:102BA000441188430749487008468078C4F384215B
:102BB00088430449887003220249012000F0AAFDDD
:102BC00070BD0000EC0100201CB5182026490871DA
:102BD000402048711920C8720822091D042000F005
:102BE00099FD08226946042000F0A6F99DF800002E
:102BF00000F07F001C490979884229D19DF8010025
:102C000019494979884223D19DF8020016498979EA
:102C100088421DD19DF803001349C979884217D114
:102C20009DF804001049097A884211D19DF80500E9
:102C30000D49497A88420BD19DF806000A49897AE4
:102C4000884205D19DF807000749C97A884209D012
:102C500000BF06A005F0D0FB08A005F0CDFB00BF2B
:102C600000BFFEE71CBD0000B00300205B425137EF
:102C700036395830204552524F525D004251373656
:102C800039583020636F6E666967207265676973B3
:102C9000746572206661696C2C506C656173652087
:102CA000726573657420424D5320626F6172640DCA
:102CB0000A00000070B504460D462DB90848407959
:102CC00020430749487104E005484079A04304497E
:102CD000487103484179052000F0AEFD70BD000049
:102CE000B003002070B505460C462CB901221146F0
:102CF000044801F077FC04E000220121014801F0C2
:102D000071FC70BD0008014010B50021042000F0E6
:102D100093FD0121042000F08FFD0221042000F02A
:102D20008BFD10BD2DE9F0412A49502000F0E8F953
:102D30002849891C592000F0E3F92649491C5120F3
:102D400000F0DEF92349343991F8341001F00C0118
:102D500040F26D1202EB41011E4A343A92F83620DD
:102D600001EB5210FDF718FD064600221A4BFDF745
:102D700096FC0446FDF79EFD184908601548343856
:102D800090F8340000F00C0040F26D1101EB4000AF
:102D90001049343991F8361000EB51101049088071
:102DA0000C48343890F8350000F0800048B10948EC
:102DB000343890F835004042404240B2094908702A
:102DC00006E00448343890F8350040B205490870F0
:102DD000BDE8F081E403002000408F40DC010020CA
:102DE000E0010020E201002070B50446FFF78CFFEF
:102DF0004FF4FA7005F08FFF00F070FCFFF792FFC0
:102E00001C2221463048FDF717FA3048807920F01F
:102E10000700801C2D4988710846C07920F00F00FA
:102E2000401CC871217F2948807961F3C40027497B
:102E30008871617F2548C07961F306102349C87104
:102E4000A17F2248007A61F3871020490872E17F50
:102E50001E48007A61F305101C490872618C1C4AF7
:102E600092F90020881AFDF789FC06461948016886
:102E70003046FDF7BDFA0546FDF7C5FC00F6F870D3
:102E8000C0F3071011494872218C114A92F90020B1
:102E9000881AFDF773FC06460E4801683046FDF7B8
:102EA000A7FA0546FDF7AFFCC0F307100749887283
:102EB000FFF78AFE00BF08A005F09EFA0AA005F001
:102EC0009BFA00BF70BD000094030020B0030020F7
:102ED000E2010020DC0100205B42513736395830D6
:102EE00020494E464F5D0000425137363958302058
:102EF000496E697469616C697A652073756363658D
:102F0000737366756C210D0A0000000010B5094945
:102F1000042000F073F90748001F407900F0010019
:102F200030B90448001F0079C00908B1012010BD64
:102F30000020FCE7B40300202DE9F7438AB00D46DA
:102F40001646202101A8FDF790F9700005F066FAF9
:102F500007465FB900BF3FA005F04EFA42A005F05A
:102F60004BFA00BF00200DB0BDE8F0833C460820BE
:102F7000ADF8080000208DF80E000AA8019001208D
:102F8000ADF80A000821ADF8181001218DF81E10C7
:102F900005947100ADF81A10022201A9364802F01A
:102FA000FAFB02280CD0384605F02AF800BF33A0FF
:102FB00005F022FA35A005F01FFA00BF0020D2E785
:102FC00011208DF8240020788DF825000722022199
:102FD00009A800F057FD8046641C207840450CD0BD
:102FE000384605F00DF800BF24A005F005FA30A022
:102FF00005F002FA00BF0020B5E714F8010C2870B4
:103000004FF001091FE0641C07220121204600F057
:1030100039FD8046641C6D1C207840450CD0384634
:1030200004F0EEFF00BF15A005F0E6F92AA005F0B8
:10303000E3F900BF002096E714F8010C287009F1AD
:10304000010000F0FF09B145DDDB384604F0D8FF90
:10305000012088E75B4251373639583020574152BA
:103060004E494E475D0000004D616C6C6F63204619
:1030700061696C0D0A000000BC0100205B42513701
:1030800036395830204552524F525D0052656164C6
:1030900020526567697374657220426C6F636B20A0
:1030A0005769746820435243204361696C0D0A00DC
:1030B0005265616420526567697374657220426C61
:1030C0006F636B20435243203120436865636B205C
:1030D0004661696C0D0A00005265616420526567A3
:1030E000697374657220426C6F636B204352432096
:1030F000436865636B204661696C0D0A000000003F
:1031000033B58BB00D46202101A8FDF7AEF808209D
:10311000ADF8080000208DF80E000BA801900120EA
:10312000ADF80A000821ADF8181001218DF81E1025
:103130000AA805900221ADF81A10022201A9184828
:1031400002F029FB02280AD000BF16A005F054F9AE
:1031500018A005F051F900BF00200DB030BD1120BE
:103160008DF824009DF828008DF825000722022103
:1031700009A800F087FC04469DF82900A04209D068
:1031800000BF08A005F038F913A005F035F900BF1D
:103190000020E2E79DF8280028700120DDE700000C
:1031A000BC0100205B42513736395830204552521D
:1031B0004F525D00526561642052656769737465A2
:1031C0007220427974652057697468204352432005
:1031D0004661696C0D0A00005265616420526567A2
:1031E00069737465722042797465204352432043A9
:1031F0006865636B204661696C0D0A0033B58BB05E
:103200000D46202101A8FDF730F80820ADF8080090
:1032100000208DF80E000BA801900120ADF80A00E7
:103220000821ADF8181001218DF81E100AA805908C
:103230000421ADF81A10022201A9244802F0ABFAC9
:1032400002280AD000BF22A005F0D6F824A005F07D
:10325000D3F800BF00200DB030BD11208DF8240040
:103260009DF828008DF825000722022109A800F00A
:1032700009FC04469DF82900A04209D000BF14A013
:1032800005F0BAF81FA005F0B7F800BF0020E2E78C
:10329000072201210DF12A0000F0F4FB04469DF8FD
:1032A0002B00A04209D000BF09A005F0A5F81FA07F
:1032B00005F0A2F800BF0020CDE79DF828009DF89A
:1032C0002A1040EA012028800120C4E7BC01002028
:1032D0005B42513736395830204552524F525D00CB
:1032E0005265616420526567697374657220576F17
:1032F0007264205769746820435243204661696CA8
:103300000D0A000052656164205265676973746537
:103310007220576F72642043524320312043686506
:10332000636B204661696C0D0A00000052656164A0
:1033300020526567697374657220576F7264204309
:103340005243203220436865636B204661696C0DEF
:103350000A0000001FB54FF40040009000200190CB
:103360000290032003906946014800F099FF1FBDB9
:10337000000801401FB54FF400400090012001906B
:1033800000200290032003906946024800F088FF65
:103390001FBD00000008014070B51E492A20FFF73C
:1033A0002DFF38B900BF1CA005F026F81EA005F0BF
:1033B00023F800BF17482A3890F82B0015492A39FE
:1033C00091F82A1040EA01242046FDF7E0F905466D
:1033D0001D4801684FF08140FCF7D8FF064629469A
:1033E000FCF7D4FF1949C861194991F9001001EBA4
:1033F0008100FDF7C3F905461448C1692846FCF76A
:103400006DFF1249C861C8691249FCF7F1FF0F4905
:10341000C86170BDDA0300205B425137363958303D
:10342000204552524F525D005570646174652042D0
:1034300061747465727920566F6C7461676520469B
:1034400061696C0D0A000000DC010020E803002027
:10345000E201002000007A442DE9F05F0024A34639
:10346000A146A2460A221E490C20FFF765FD38B985
:1034700000BF1CA004F0C0FF1EA004F0BDFF00BFF1
:10348000DFF85C90002426E099F8010099F800101C
:1034900000EB01201FFA80FB1D48B0F900000BFB78
:1034A00000F04FF47A71B0FBF1FA1A4890F900007D
:1034B00082445046FDF781F907460022164BFDF77E
:1034C000EEF80546FDF7F6F9144941F8240009F134
:1034D0000209601CC4B2052CD6DBBDE8F09F0000D9
:1034E000BC0300205B4251373639583020455252D8
:1034F0004F525D005570646174652043656C6C20AB
:10350000566F6C74616765204661696C0D0A000036
:10351000E0010020E201002000408F40E80300208D
:103520002DE9FF4720493220FFF768FE38B900BF78
:103530001EA004F061FF21A004F05EFF00BF1A4846
:10354000323890F833001849323991F8321040EA95
:10355000012A0AF4004028B16FEA0A00401C80B238
:10356000C0F1000A1B480068FDF761F904460D46EA
:103570005046FDF711F9184A184BCDE90001FDF747
:103580001CF8064622462B46FDF789F88046144A69
:10359000144BFDF712F8CDE90201FDF78BF9124942
:1035A0008861BDE8FF870000E20300205B425137DD
:1035B00036395830204552524F525D005570646183
:1035C00074652043757272656E74204661696C0D76
:1035D0000A000000E8010020E17A14AE47E1204033
:1035E0008DEDB5A0F7C6B03EE80300202DE9F84FF9
:1035F0004FF0000BDA46D1462848007898B10020F9
:10360000264908701821042000F016F938B900BFC7
:1036100023A004F0F1FE26A004F0EEFE00BF4FF45C
:10362000FA6005F078FB022229492C20FFF784FC80
:1036300038B900BF1AA004F0DFFE1DA004F0DCFEC4
:1036400000BFDFF88C90002423E099F8010099F87E
:10365000001040EA012B4FF4BF700BFB00F04FF459
:103660007A71B0FBF1FA1FFA8AF002F015FB0090B4
:10367000FDF792F807460022164BFDF710F80546B5
:10368000FDF718F9144941F8240009F10209601CFA
:10369000C4B2012CD9DBBDE8F88F0000E4010020A2
:1036A0005B42513736395830204552524F525D00F7
:1036B000557064617465205473782054656D70652D
:1036C000726174757265204661696C0D0A000000B4
:1036D000DC03002000002440FC03002010B5FFF7AD
:1036E00049FE0122D1030A4800F07CFF4FF47A70B2
:1036F00005F011FB00224FF40041054800F072FF75
:10370000FFF728FE4FF47A7005F005FB10BD0000AE
:10371000000801402DE9FF4781460E46174600206C
:1037200000900190029003907900881C04F076FECE
:1037300005465DB900BF28A004F05EFE2BA004F092
:103740005BFE00BF002004B0BDE8F0872C461020CF
:1037500004F8010B04F8019B307804F8010B0722F0
:103760000321284600F08EF920704FF001080EE08A
:10377000641C761C3078207007220121204600F05E
:1037800081F96070641C08F1010000F0FF08B84581
:10379000EEDB0820ADF8040000208DF80A00681C5C
:1037A00000907800401CADF80600012269461348DD
:1037B00001F0F1FF012809D000BF11A004F01CFEA8
:1037C00013A004F019FE00BF0020BCE7284604F057
:1037D00017FC0120B7E700005B42513736395830FB
:1037E000205741524E494E475D0000004D616C6CC0
:1037F0006F63204661696C0D0A000000BC01002067
:103800005B42513736395830204552524F525D0095
:1038100057726974652052656769737465722042D6
:103820006C6F636B20576974682043524320466174
:10383000696C0D0A0000000030B585B004460D46E5
:103840000020009001900290039010208DF810004D
:103850008DF811408DF812500722032104A800F0C2
:1038600011F98DF813000820ADF8040000208DF840
:103870000A000DF1110000900320ADF806000122AE
:103880006946094801F087FF01280AD000BF07A058
:1038900004F0B2FD09A004F0AFFD00BF002005B0A8
:1038A00030BD0120FBE70000BC0100205B42513726
:1038B00036395830204552524F525D005772697464
:1038C000652052656769737465722042797465205A
:1038D0005769746820435243204661696C0D0A00A1
:1038E00010B5FFF71DFE024880690249886010BDCF
:1038F000E80300204803002010B5FFF74DFD024803
:10390000C0690249486010BDE80300204803002058
:1039100070B500240025FFF769FE18E0114951F841
:1039200024001149FCF7ECFF0FD80E4951F8240090
:103930000E49FCF7DBFF08D80A4850F82420284637
:10394000691CCDB20A4941F82020601CC4B2094864
:103950004079A042E2DC06488564294600F03CF844
:1039600070BD0000FC03002000005CC20000FA42B1
:1039700048030020B201002010B5FFF76DFD0020C4
:1039800011E00F4951F820200E4941F820200C4940
:1039900051F820200B49283941F8302001EBC001B3
:1039A0004860411CC8B2084909798142E9DC0648EF
:1039B0000179064B08220348283800F030F810BD82
:1039C000E80300207C030020B20100202D6D0008D8
:1039D00010B5FFF79BFA10BD2DE9F04105460E46E4
:1039E000012718E0002412E0621C55F8221055F857
:1039F0002400FCF785FF09D255F82480601C55F897
:103A0000200045F82400601C45F82080641CF01B51
:103A1000A042E9D87F1CB742E4D3BDE8F0812DE98C
:103A2000F04705460F46164699464FF00008002419
:103A30004FF0010818E0002410E0621C02FB065160
:103A400004FB0650C847002807DD621C02FB065134
:103A500004FB0650324605F0E8FD641CA7EB0800A5
:103A6000A042EAD808F10108B845E4D3BDE8F087E0
:103A700000BFFEE710B5024800F009F910BD0000D4
:103A80009802002070B503460C46002016E0802105
:103A900011E000F080051DB14506280E504001E000
:103AA0004506280E1D780D4005B150400D4601EB2E
:103AB000D576C6F347010029EBD15B1C251EA4F186
:103AC0000106F4B2E3D170BD2DE9F0410748446826
:103AD00085684FF07E5629462046FCF757FC07467E
:103AE0003146FCF753FCBDE8F0810000480300209C
:103AF000704710B54FF4805000F0C4FB10BD72B693
:103B000000BFFEE710B504462189206800F058FD8B
:103B100010BD704770B5044694F82050012D01D0B7
:103B2000022D7DD151B92068C06800F0030080B932
:103B3000606A40F400106062012070BD2068006976
:103B400000F0030028B9606A40F4001060620120B0
:103B5000F3E7206800F5D87000EB0110006800F072
:103B600004009060906840B9206800F5D87000EBC0
:103B700001100068400D106007E0206800F5D87063
:103B800000EB01100068C0085060206800F5D87094
:103B900000EB0110006800F00200D060206800F522
:103BA000D87000EB0110406800F00F001061206831
:103BB00000F5D87000EB0110406800F47F40000A67
:103BC0009061206800F5D87000EB01104068000C8F
:103BD0005061206800F5D87000EB01108068187003
:103BE000206800F5D87000EB0110806800F47F4079
:103BF000000A5870206800F5D87000EB011080684A
:103C000000F47F00000C9870206800F5D87000EB7D
:103C100001108068000ED870206800F5D87000E0B0
:103C20002FE000EB0110C0681871206800F5D87013
:103C300000EB0110C06800F47F40000A5871206852
:103C400000F5D87000EB0110C06800F47F00000C94
:103C50009871206800F5D87000EB0110C068000E64
:103C6000D87131B92068C06840F020002668F06043
:103C700005E02068006940F02000266830610020DF
:103C80005BE7606A40F480206062012055E72DE91F
:103C9000F05F04460025206846692068D0F804904B
:103CA000206887682068D0F80CA02068D0F810B091
:103CB0002068D0F8188006F00100002855D007F0E1
:103CC0000100C0B101202168886007F0020018B12E
:103CD000204600F045FA0EE007F0040010B145F46C
:103CE000006508E007F0080010B145F4805502E0D7
:103CF000204600F034FA07F48070C8B14FF48070A9
:103D00002168886007F4007018B1204600F02AFA94
:103D10000EE007F4806010B145F4005508E007F4A8
:103D2000006010B145F4804502E0204600F019FA29
:103D300007F48030C8B14FF480302168886007F400
:103D4000003018B1204600F00FFA0EE007F4802092
:103D500010B145F4004508E007F4002010B145F427
:103D6000803502E0204600F0FEF906F0080038B188
:103D70000AF0100020B145F4007510202168C860D9
:103D800006F0040040B10AF0080028B108202168BC
:103D9000C860204600F0B0F906F0020038B1206893
:103DA000C06800F0030010B1204600F0A7F906F04B
:103DB000400038B10BF0100020B145F480651020B0
:103DC0002168086106F0200040B10BF0080028B11E
:103DD000082021680861204600F0BEF906F01000B6
:103DE00038B12068006900F0030010B1204600F0EF
:103DF000B4F906F4003040B109F0100028B11020E9
:103E000021684860204600F0A9F906F4803040B1EE
:103E100009F0080028B1082021684860204600F019
:103E2000A4F906F4004088B309F0040078B306F45E
:103E3000807020B108F0010008B145F0010506F4DA
:103E4000007020B108F0020008B145F0020506F448
:103E5000806020B108F0040008B145F0040506F4C4
:103E60000060A0B108F0700088B108F07000402830
:103E700017D006DC10280BD020280CD0302819D100
:103E80000CE0502810D0602814D110E01DE019E09B
:103E900045F008050FE045F010050CE045F0200561
:103EA00009E045F0400506E045F0800503E045F4F3
:103EB000807500E000BF00BF2068806920F07000BE
:103EC000216888610420216848602DB1606A284318
:103ED00060622046FFF71DFEBDE8F09F70B5044606
:103EE0000CB9012070BD94F8200010B9204600F0F4
:103EF000AFF82068006840F001002168086000F019
:103F000077FB05460DE000F073FB401B0A2808D93B
:103F1000606A40F400306062052084F820000120CF
:103F2000E0E72068406800F001000028EBD020683E
:103F3000006820F002002168086000F059FB054687
:103F40000DE000F055FB401B0A2808D9606A40F4D8
:103F500000306062052084F820000120C2E720685C
:103F6000406800F002000028EBD1207E012806D135
:103F70002068006840F080002168086005E0206843
:103F8000006820F0800021680860607E012806D16A
:103F90002068006840F040002168086005E0206863
:103FA000006820F0400021680860A07E012806D14A
:103FB0002068006840F020002168086005E0206863
:103FC000006820F0200021680860E07E012806D10A
:103FD0002068006820F010002168086005E0206873
:103FE000006840F0100021680860207F012806D199
:103FF0002068006840F008002168086005E020683B
:10400000006820F0080021680860607F012806D160
:104010002068006840F004002168086005E020681E
:10402000006820F0040021680860D4E90201084318
:1040300021690843616908436168491E0843216892
:10404000C86100206062012084F82000002049E758
:1040500010B586B0044600200290039004900590AD
:104060002249206888423ED100BF2148C06940F003
:1040700000701F49C8610846C06900F000700190D7
:1040800000BF00BF00BF0846806940F0040088619F
:104090000846806900F00400019000BF00BFC8140A
:1040A000029000200390049002A9124800F0F8F852
:1040B0004FF480500290022003900320059002A943
:1040C0000C4800F0EDF800221146142000F01AFB15
:1040D000142000F007FB02221146152000F012FB0D
:1040E000152000F0FFFA06B010BD0000006400408B
:1040F00000100240000801407047000030B589B050
:10410000054607AB6A4600212846FFF703FD68B95C
:1041100007A004F071F9002406E007A8015D0DA0D6
:1041200004F06AF9601CC4B2082CF6DB09B030BD9B
:104130000A476574205278204D6573736167652066
:104140005375636365737321210D0A446174613A89
:1041500000000000256400007047704770477047FA
:10416000704770477047704770477047014600229C
:1041700091F82100022808D00420886300BF0020A5
:1041800081F8200000BF012070470868006820F017
:104190000E000B6818600868006820F001000B68CA
:1041A000186091F8403001209840CB6B5860012096
:1041B00081F8210000BF002081F8200000BF1046D8
:1041C000E2E7000070B50446002594F821000228BB
:1041D00003D00420A063012548E02068006820F097
:1041E0000E00216808602068006820F00100216846
:1041F00008601F492068884201D1012026E01C493F
:1042000014312068884201D110201FE0184928315C
:104210002068884201D1801518E015493C3120689A
:10422000884201D1801411E0114950312068884240
:1042300002D14FF4803009E00D4964312068884292
:1042400002D14FF4801001E04FF080700849083926
:104250004860012084F8210000BF002084F820007D
:1042600000BF606B10B12046616B8847284670BD67
:104270000800024010B50446B4F5805F01D1FEF796
:10428000FFFB10BD10B5044604480068204020B173
:10429000024804602046FFF7EDFF10BD1404014002
:1042A0002DE9F8470346002294466EE14FF00108DD
:1042B00008FA02F4D1F8008008EA0400A0427DD197
:1042C000DFF8DCA2D1F80480A8EB0A09D0453AD087
:1042D00014DCB8F1030F50D009DCB8F1000F31D075
:1042E000B8F1010F1CD0B8F1020F49D120E0B8F1AC
:1042F000110F18D0B8F1120F42D11EE0B9F5881F86
:1043000025D006DCB9F5803F20D0B9F5801F37D124
:104310001AE0B9F5001F18D0B9F5041F30D117E025
:10432000D1F80CC02DE0D1F80C8008F1040C28E085
:10433000D1F80C8008F1080C23E0D1F80C8008F1CA
:104340000C0C1EE000BF00BF00BF00BF00BF00BFDD
:10435000D1F80880B8F1000F02D14FF0040C0BE047
:10436000D1F80880B8F1010F03D14FF0080C1C619F
:1043700002E04FF0080C5C6103E04FF0000C00E03D
:1043800000BF00BFFF2801D8984601E003F10408F0
:104390004646FF2802D84FEA820803E0A2F1080847
:1043A0004FEA88084746D6F800804FF00F0909FA0F
:1043B00007F928EA09080CFA07F900E088E048EA5A
:1043C0000908C6F80080D1F8048008F08058B8F1D8
:1043D000805F7DD100BFDFF8CC81D8F8188048F02D
:1043E0000108DFF8C091C9F81880C846D8F81880CD
:1043F00008F00108CDF8008000BF00BF4FEAB938CF
:104400004FEA920958F829504FEA82784FEA187912
:104410004FF00F0808FA09F825EA0805DFF8888147
:10442000434502D14FF0000816E0DFF88081434594
:1044300002D14FF001080FE0DFF87481434502D14B
:104440004FF0020808E0DFF86C81434502D14FF0DD
:10445000030801E04FF004084FEA82794FEA197926
:1044600008FA09F848EA0505DFF84C814FEA920995
:1044700048F82950D1F8048008F48038B8F5803F16
:104480000AD1DFF83881D8F8008048EA0008DFF860
:104490002C91C9F8008009E0DFF82081D8F800806D
:1044A00028EA0008DFF81491C9F80080D1F80480E8
:1044B00008F40038B8F5003F10D1DFF8008108F1AA
:1044C0000408D8F8008048EA0008DFF8F09000E01F
:1044D0005AE009F10409C9F800800DE0DFF8DC803A
:1044E00008F10408D8F8008028EA0008DFF8CC902A
:1044F00009F10409C9F80080D1F8048008F4801893
:10450000B8F5801F0ED1DFF8B48008F10808D8F89C
:10451000008048EA0008DFF8A49009F10809C9F80A
:1045200000800DE0DFF8948008F10808D8F80080DA
:1045300028EA0008DFF8849009F10809C9F800802A
:10454000D1F8048008F40018B8F5001F0ED1DFF888
:104550006C8008F10C08D8F8008048EA0008DFF801
:104560005C9009F10C09C9F800800DE0DFF84C807F
:1045700008F10C08D8F8008028EA0008DFF83C9021
:1045800009F10C09C9F80080521CD1F8008028FA02
:1045900002F8B8F1000F7FF489AEBDE8F88700009B
:1045A000000011100010024000080140000C014002
:1045B00000100140001401400800014000040140C7
:1045C000024693680B400BB1012000E000207047C9
:1045D00010B5C26821EA020302EA010443EA044377
:1045E000036110BD0AB1016101E00B040361704772
:1045F0000148006870470000000000200348006880
:104600000349097808440149086070470000002008
:104610000800002010B50848006840F01000064966
:104620000860032000F0ACF8002000F007F800F06C
:104630002BF8002010BD00000020024070B5044699
:104640000E4800784FF47A71B1FBF0F00C4909681C
:10465000B1FBF0F5284600F00FFC08B1012070BD59
:10466000102C07D200222146501E00F04BF80548BE
:10467000046001E00120F2E70020F0E708000020DC
:104680000C0000200400002008B500BF134880691A
:1046900040F00100114988610846806900F001007E
:1046A000009000BF00BF00BF0846C06940F08050C6
:1046B000C8610846C06900F08050009000BF00BF8C
:1046C000052000F05DF800BF0549486820F0E06073
:1046D00040F00070486000BF08BD000000100240BC
:1046E0000000014001460846002809DB00F01F03D6
:1046F00001229A4043099B0003F1E023C3F8002103
:1047000000BF70472DE9F05F80460D461646002732
:1047100001F042FD074639462A46334601F00700BC
:10472000C0F1070ABAF1040F02D94FF0040A01E000
:10473000C0F1070AD14600F1040ABAF1070F02D20C
:104740004FF0000A01E0A0F1030AD4464FF0010A3D
:104750000AFA09FAAAF1010A0AEA020A0AFA0CFAA2
:104760004FF0010B0BFA0CFBABF1010B0BEA030B47
:104770004AEA0B042146404601F016FDBDE8F09FD1
:1047800000BF00F00702064B19684FF6FF031940FF
:10479000044B0B4343EA0221014B196000BF7047F1
:1047A0000CED00E00000FA0570B504460D460CB9AA
:1047B000012070BD5A48006800F00700A8420ED2E0
:1047C0005748006820F0070028435549086008460C
:1047D000006800F00700A84201D00120E9E7207836
:1047E00000F0020002281DD1207800F00400042807
:1047F00005D14C48406840F4E0604A494860207860
:1048000000F00800082805D14648406840F4605090
:10481000444948604348406820F0F000A1680843DC
:1048200040494860207800F0010078B360680128B2
:1048300006D13C48006800F4003090B90120B8E788
:104840006068022806D13748006800F0007040B95F
:104850000120AEE73348006800F0020008B90120EB
:10486000A7E73048406820F00300616808432D49FD
:104870004860FFF7BDFE064609E0FFF7B9FE801B62
:1048800041F28831884202D9032092E707E02548A7
:10489000406800F00C006168B0EB810FEDD120485A
:1048A000006800F00700A8420ED91D48006820F0FB
:1048B000070028431A4908600846006800F007000E
:1048C000A84201D0012074E7207800F004000428F9
:1048D00007D11448406820F4E060E16808431149BA
:1048E0004860207800F00800082808D10D4840688A
:1048F00020F46050216940EAC1000A49486000F094
:104900003FF808494968C1F30311074A515CC840A0
:104910000649086006480068FFF790FE002048E757
:1049200000200240001002405E9700080C000020AA
:104930000400002001480068704700000C000020BF
:1049400000B5FFF7F7FF04494968C1F30221034AA4
:10495000515CC84000BD0000001002406E97000886
:1049600000B5FFF7E7FF04494968C1F3C221034AD4
:10497000515CC84000BD0000001002406E97000866
:10498000F0B585B00FF26C0C9CE8E01001A8A0E82F
:10499000E0101CA52D6800950021002200230024B2
:1049A0000020194D696801F00C05F5B1042D02D005
:1049B000082D19D101E0154819E001ADC1F3834676
:1049C000AC5D01F4803555B10F4D6D68C5F34045C0
:1049D0001DF805200D4D6543B5FBF2F302E00C4DCB
:1049E00004FB05F3184602E000BF084800BF00BF03
:1049F00005B0F0BD02030405060708090A0B0C0DFB
:104A00000E0F1010010200000010024000127A0088
:104A100000093D00F8B504460CB90120F8BD207826
:104A200000F00100002878D0F848406800F00C0041
:104A300004280CD0F548406800F00C00082811D17B
:104A4000F248406800F48030B0F5803F0AD1EF486A
:104A5000006800F4003000285FD0606800285CD156
:104A60000120DBE700BF6068B0F5803F06D1E74872
:104A7000006840F48030E549086028E0606858B973
:104A8000E248006820F48030E04908600846006889
:104A900020F4802008601AE06068B0F5A02F0BD1E8
:104AA000DA48006840F48020D84908600846006869
:104AB00040F4803008600AE0D448006820F4803078
:104AC000D24908600846006820F48020086000BFD2
:104AD000606888B1FFF78CFD054606E0FFF788FDAA
:104AE000401B642801D9032098E7C848006800F4F7
:104AF00000300028F2D010E0FFF77AFD054606E00E
:104B0000FFF776FD401B642801D9032086E7BF48E4
:104B1000006800F400300028F2D1207800F0020094
:104B2000022857D1B948406800F00C0050B1B7488E
:104B3000406800F00C00082818D1B448406800F420
:104B4000803098B9B148006800F0020020B12069B7
:104B5000012801D0012061E7AC48006820F0F8008E
:104B6000616940EAC100A949086033E02069E8B101
:104B70000120A7490860FFF73BFD054606E0FFF767
:104B800037FD401B022801D9032047E79F480068F2
:104B900000F002000028F2D09C48006820F0F800E5
:104BA000616940EAC1009949086013E00020984912
:104BB0000860FFF71DFD054606E0FFF719FD401BE5
:104BC000022801D9032029E79048006800F002007C
:104BD0000028F2D1207800F0080008282DD1A06923
:104BE000B8B101208B490860FFF702FD054606E0D9
:104BF000FFF7FEFC401B022801D903200EE7834883
:104C0000406A00F002000028F2D0012000F056FFB8
:104C100013E000207F490860FFF7EAFC054606E044
:104C2000FFF7E6FC401B022801D90320F6E677488F
:104C3000406A00F002000028F2D1207800F0040061
:104C4000042873D100277148C06900F0805070B902
:104C500000BF6E48C06940F080506C49C86108468A
:104C6000C06900F08050009000BF00BF01276A4873
:104C7000006800F48070B0B96748006840F4807044
:104C800065490860FFF7B4FC054606E0FFF7B0FC95
:104C9000401B642801D90320C0E65F48006800F487
:104CA00080700028F2D000BFE068012806D1574884
:104CB000006A40F001005549086227E0E06858B9F1
:104CC0005248006A20F00100504908620846006A14
:104CD00020F00400086219E0E06805280BD14B4879
:104CE000006A40F00400494908620846006A40F042
:104CF000010008620AE04548006A20F001004349CB
:104D000008620846006A20F00400086200BFE068FC
:104D1000A0B1FFF76DFC054609E0FFF769FC401BF9
:104D200041F28831884202D9032077E622E03748F1
:104D3000006A00F002000028EFD012E0FFF758FCF4
:104D4000054608E0FFF754FC401B41F288318842D9
:104D500001D9032062E62D48006A00F00200002815
:104D6000F0D1012F05D12948C06920F08050274992
:104D7000C86100BFE069C8B32448406800F00C0077
:104D8000082860D0E069022848D100202049086640
:104D9000FFF72EFC054606E0FFF72AFC401B022821
:104DA00001D903203AE61948006800F00070002895
:104DB000F2D1206AB0F5803F07D11448406820F452
:104DC0000030A168084311494860D4E9080108434C
:104DD0000E49496821F4741108430C4948600120C8
:104DE0000B490866FFF704FC054607E03DE0FFF7C6
:104DF000FFFB401B022801D903200FE6034800688F
:104E000000F000700028F2D02FE0000000100240F7
:104E100000004242800442420070004000201449D9
:104E20000866FFF7E5FB054606E0FFF7E1FB401BE0
:104E3000022801D90320F1E50E48006800F0007057
:104E40000028F2D111E0E069012800D1E6E5094827
:104E5000466806F48031206A814204D106F470115C
:104E6000606A814201D00120D8E50020D6E500002B
:104E7000000042420010024070B504462546681EFC
:104E8000B0F1807F01D301200FE0681E4FF0E021D8
:104E900048610F214FF0FF3001F086F900204FF0FC
:104EA000E021886107200861002070BD70477047CD
:104EB0002DE9F84F0446206805682068C668206818
:104EC00047694FF00009CA4605F00F09B9F1000F14
:104ED0000AD105F0200038B106F0200020B12046AC
:104EE00000F0B1FFBDE8F88FB9F1000F71D007F005
:104EF000010018B906F4907000286AD005F001008E
:104F000030B106F4807018B1206C40F001002064CC
:104F100005F0040030B107F0010018B1206C40F03A
:104F20000200206405F0020030B107F0010018B162
:104F3000206C40F00400206405F0080048B106F041
:104F4000200010B907F0010018B1206C40F00800F3
:104F50002064206C68B305F0200028B106F0200022
:104F600010B1204600F06FFF20684069C0F3801A3E
:104F7000206C00F0080010B9BAF1000F22D02046D2
:104F800000F036FF2068406900F04000B0B12068B2
:104F9000406920F0400021684861A06B50B156483C
:104FA000A16B4863A06BFFF70DF910B1A06B416BCB
:104FB00088470CE02046FFF77AFF08E02046FFF71D
:104FC00076FF04E02046FFF772FF0020206489E7A7
:104FD000FFE7206B012878D105F01000002874D07D
:104FE00006F01000002870D000BF0020009020685C
:104FF0000068009020684068009000BF00BF2068F3
:10500000406900F04000C0B3A06B006840681FFA20
:1050100080F8B8F1000F2FD0A08D40452CDDA4F80A
:105020002E80A06B806920281FD02068C06820F4E3
:1050300080702168C8602068406920F00100216804
:1050400048612068406920F04000216848612020C4
:1050500084F83E00002020632068C06820F0100023
:105060002168C860A06BFFF781F8A08DE28D801ADF
:1050700081B22046FFF71AFF34E7FFE7A08DE18DEC
:10508000401A1FFA80F8E08DE8B1B8F1000F1AD08D
:105090002068C06820F490702168C860206840696A
:1050A00020F0010021684861202084F83E000020A3
:1050B00020632068C06820F010002168C860414665
:1050C0002046FFF7F3FE0DE7FFE705F0800030B163
:1050D00006F0800018B1204600F0C9FF02E705F095
:1050E000400030B106F0400018B1204600F09BFEB1
:1050F000F8E600BFF6E60000DD5D000810B50446E6
:105100000CB9012010BDA06900B100E000BF94F807
:105110003D0028B9002084F83C00204600F028F823
:10512000242084F83D002068C06820F400502168E5
:10513000C860204600F0FAFE2068006920F4904024
:10514000216808612068406920F02A0021684861D0
:105150002068C06840F400502168C86000202064C6
:10516000202084F83D0084F83E000020CAE70000BB
:1051700010B586B00446002002900390049005907C
:105180003749206888422FD100BF3648806940F4F3
:105190008040344988610846806900F4804001906D
:1051A00000BF00BF00BF0846806940F0040088616E
:1051B0000846806900F00400019000BF00BF481558
:1051C0000290022003900320059002A92648FFF7D1
:1051D00067F84FF48060029000200390049002A9C9
:1051E0002148FFF75DF839E020492068884235D131
:1051F00000BF1C48C06940F400301A49C861084625
:10520000C06900F40030019000BF00BF00BF084635
:10521000806940F0040088610846806900F004005D
:10522000019000BF00BF04200290022003900320E1
:10523000059002A90C48FFF733F8082002900020DF
:105240000390049002A90848FFF72AF801220221DE
:105250002620FFF757FA2620FFF744FA06B010BDC4
:1052600000380140001002400008014000440040A6
:1052700070B504460D46164694F83E00202816D117
:1052800005B10EB9012070BD00BF94F83C000128A3
:1052900001D10220F7E7012084F83C0000BF002084
:1052A000206332462946204600F0BEFEEBE702208E
:1052B000E9E7000010B504460749206888420AD192
:1052C00006A003F099F8012000F00CFC0122074928
:1052D000074800F078F810BD00440040727334387D
:1052E0003520727820646F6E650D0A00EF01002092
:1052F000040300202DE9F84F04460E461746994650
:105300004FF0000A94F83D0020285AD106B117B991
:105310000120BDE8F88F00BF94F83C00012801D1BE
:105320000220F6E7012084F83C0000BF0020206442
:10533000212084F83D00FFF75BF98246A784E784CB
:10534000A068B0F5805F04D1206910B90025B0468F
:1053500002E035464FF0000800BF002084F83C0012
:1053600000BF1BE05346002280212046CDF800906C
:1053700000F0ADFE08B10320CBE745B9B8F8000056
:10538000C0F308002168486008F1020803E02878AB
:10539000216848606D1CE08C401EE084E08C002891
:1053A000E0D15346002240212046CDF8009000F085
:1053B0008EFE08B10320ACE7202084F83D000020D9
:1053C000A7E70220A5E710B5034693F83D00202883
:1053D00023D101B10AB9012010BD00BF93F83C00F0
:1053E000012801D10220F7E7012083F83C0000BF2B
:1053F00019629A84DA8400201864212083F83D0021
:1054000000BF002083F83C0000BF1868C06840F06F
:1054100080001C68E0600020DEE70220DCE700007E
:1054200010B504460749206888420AD106A002F058
:10543000E3FF002000F056FB012207490748FFF771
:1054400017FF10BD00440040727334383520747863
:1054500020646F6E650D0A00EF0100200403002038
:1054600010B5FAF75FFE0149086010BDB8010020D1
:105470007047000010B502480068FAF757FE10BDEB
:10548000B80100202DE9F05F81460D4695F80A80AD
:10549000A87A00F008070FB1002001E0D9F80C004D
:1054A00000F0FF0A08F00200002833D0A888062187
:1054B00001EAE01040F0F00695F804B0524631469B
:1054C000484600F0EAF80446012C03D017B9002042
:1054D000BDE8F09F5946484600F0B8F90446012C53
:1054E00002D00FB90020F3E708F0010028B34846C6
:1054F00000F0BEF846F0010652463146484600F03C
:10550000CCF80446012C18D0BFB90DA002F074FFEE
:105510000020DDE728794006060E08F0010008B1FA
:1055200046F0010652463146484600F0B6F80446B9
:10553000012C02D00FB90020CAE70120C8E7000003
:105540003C3C2D4932432D4552524F522D3E3E2078
:105550004E41434B3A2073656E64696E67207265F5
:1055600070656174656420616464720D0A000000F6
:105570001FB50446608921890843009011200190DD
:10558000002002900320039069462068FEF788FE01
:10559000618901222068FFF725F82189012220680E
:1055A000FFF720F8606908B1606980471FBD0000FF
:1055B00010B50248FFF7DCFF002010BDBC01002041
:1055C00070B504460026204600F0A6FA01202169A5
:1055D0008847204600F0B0FA80250EE0204600F013
:1055E0008BFA2046FEF78EFA00B12E43204600F0DB
:1055F0008BFA0120216988476D10002DEED12046DD
:1056000000F0A8FA304670BD2DE9F05F80460C46E8
:10561000D4F800904FF0000AE58824E04046FFF7F8
:10562000CFFF064689F800600AF101001FFA80FAF0
:1056300009F10109681E85B2A07A00F0100090B946
:105640004746AB46BBF1000F02D0384600F06CFA7B
:10565000012039698847384600F04EFA384600F094
:1056600053FA00BF00BF002DD8DC5046BDE8F09FC4
:1056700010B50446204600F04FFA204600F03CFAF0
:10568000012021698847204600F04EFA0120216957
:105690008847204600F038FA10BD2DE9F041064653
:1056A000884614460027002515E04146304600F0A4
:1056B000CDF80746012F00D10FE0A54200D10CE044
:1056C000304600F053F8012031698847304600F039
:1056D00041F8681CC5B2A542E7D900BF3846BDE80D
:1056E000F0812DE9F04781460C4626680027B4F882
:1056F000068028E0A07A00F0400028B1E17A484610
:1057000000F0A4F800B921E0A07A00F0800020B1F8
:10571000217B484600F09AF803E03178484600F0D3
:1057200095F80546761C002D04DCA07A00F00800F0
:1057300038B135B9A8F101001FFA80F8781C87B29A
:1057400001E005B902E0B8F1000FD3DC00BF384634
:10575000BDE8F08710B50446204600F0E5F90120C9
:1057600021698847204600F0CFF910BD10B50446E6
:10577000204600F0D9F9012021698847204600F031
:10578000BBF9012021698847204600F0C5F90120B6
:105790002169884710BD2DE9F047054688469146A6
:1057A00000272DB1B8F1000F02D0B9F1000F02D1DE
:1057B0003846BDE8F087A86908B1A8698047002687
:1057C00033E008EB0614A07A00F0080AA07A00F093
:1057D000040090B91EB12846FFF74AFF02E02846B0
:1057E000FFF7B8FF21462846FFF74CFE0746012F7A
:1057F00003D0BAF1000F00D11BE0A07A00F0010045
:1058000030B121462846FFF7FFFE074627810BE00F
:1058100021462846FFF765FF074627812089E18852
:10582000884201D0002704E0761C4E45C9D3374694
:1058300000BFA07A00F0200010B92846FFF796FFBD
:10584000E86908B1E86980473846B2E72DE9F041D8
:1058500004460F46802513E0204600F055F907EA7C
:10586000050018B1204600F057F902E0204600F08C
:105870005BF9012021698847204600F03DF96D1051
:10588000002DE9D1204600F03FF901202169884729
:105890002646304600F040F90120316988473046FD
:1058A00000F02AF9304600F047F93046FEF72AF9B1
:1058B00008B9012000E000208046304600F04AF997
:1058C000304600F021F94046BDE8F08110B50F48A0
:1058D0000F4908600920486000210D488160C160BF
:1058E0004FF4C02101614FF4E001416100210176D4
:1058F0000121417681760021C17601774177FEF75B
:10590000EDFA08B1FEF7FBF810BD0000006400409E
:105910009802002000B585B000200190029003900D
:10592000049000BF4348806940F0200041498861ED
:105930000846806900F02000009000BF00BF00BF53
:105940000846806940F0040088610846806900F0DC
:105950000400009000BF00BF00BF0846806940F00F
:10596000080088610846806900F00800009000BFC8
:1059700000BF012230213048FEF734FE012242F2FE
:10598000E0712E48FEF72EFE00224FF480412B4896
:10599000FEF728FE00224FF400412748FEF722FEC2
:1059A00048F2300001900120029000200390022074
:1059B000049001A92048FEF773FC4FF48060019029
:1059C00011200290002003900220049001A91B489E
:1059D000FEF766FC4FF480500190194802900020B9
:1059E000039001A91548FEF75BFC42F2E0300190FC
:1059F00001200290002003900320049001A90F4889
:105A0000FEF74EFC4FF480400190012002900020F0
:105A100003900220049001A90848FEF741FC0122EE
:105A200011462820FEF76EFE2820FEF75BFE05B02B
:105A300000BD00000010024000080140000C0140C1
:105A40000000111010B50B480B4908604FF4E1300D
:105A50004860002108488160C16001610C214161FA
:105A600000218161C161FFF749FB08B1FEF747F8EA
:105A700010BD000000380140C002002010B50B48E6
:105A80000B4908604FF4E13048600021084881600C
:105A9000C16001610C21416100218161C161FFF799
:105AA0002DFB08B1FEF72BF810BD000000440040AC
:105AB0000403002000BFFEE700BFFEE708B5084969
:105AC0000968C9084FF47A72B1FBF2F141430091C1
:105AD00000BF00BF00994A1E00920029F9D108BDFD
